:1000260061F4000000000000000000000000000075
:1000360000000000000000000000000000000000BA
:1000460000000000000000000000000000000000AA
:10005600000000000000000000000000000000009A
:10006600000000000000000000000000000000008A
:10007600000000000000000000000000000000007A
:10008600000000000000000000000000000000006A
:10009600000000000000000000000000000000005A
:1000A600000000000000000000000000000000004A
:1000B600000000000000000000000000000000003A
:1000C600000000000000000000000000000000002A
:1000D600000000000000000000000000000000001A
:1000E600000000000000000000000000000000000A
:1000F60000000000000000000000000000000000FA
:1001060000000000000000000000000000000000E9
:1001160000000000000000000000000000000000D9
:1001260000000000000000000000000000000000C9
:1001360000000000000000000000000000000000B9
:1001460000000000000000000000000000000000A9
:100156000000000000000000000000000000000099
:100166000000000000000000000000000000000089
:100176000000000000000000000000000000000079
:100186000000000000000000000000000000000069
:100196000000000000000000000000000000000059
:1001A6000000000000000000000000000000000049
:1001B6000000000000000000000000000000000039
:1001C6000000000000000000000000000000000029
:1001D6000000000000000000000000000000000019
:1001E6000000000000000000000000000000000009
:1001F60000000000000000000000000000000000F9
:1002060000000000000000000000000000000000E8
:100216000000000000000000011500011104011299
:0D022600040108000109000113000114008B
:07093A0090003CE0FF7E008D
:10094100D3EF9400EE940040147D6E7C00ED1D7099
:0D095100011CED4C70F7EF1F70E61E80E3F7
:01095E002276
:020806008D164D
:10080800AB07AA06E4F9F8FF7E107D0EFC1208CEAD
:100818008F1A8E198D188C17AF16E4FCFDFEAB1AD3
:10082800AA19A918A81712029BE47B64FAF9F8120E
:100838000326AD07AC06C3E51A9DFFE5199CAB0777
:10084800FAC3740C9DFDE49CFCC3740C9BFBE49AF6
:100858008C088D09F5138B145389F0438901850899
:0A0868008C85098AD2A9D28CC2B790
:010872002263
:07000300C28CC2A9C2B722A2
:03000B0002000EE2
:10000E0020B70985138C85148AD2B73285088C8562
:05001E00098AC2B7329F
:1005D200AB07AA06E5116404701CD2A2D2A0C2A184
:1005E200C2A3751101EB1B70011A12093AEB4A7092
:1005F20005C2A2C2A022E5116401701CD2A1D2A23E
:10060200C2A3C2A0751102EB1B70011A12093AEBC8
:100612004A7005C2A2C2A122E5116402701CD2A3D3
:10062200D2A1C2A0C2A2751103EB1B70011A12095A
:100632003AEB4A7005C2A3C2A122E5116403709489
:10064200C2A2C2A1D2A0D2A3751104EB1B70011ADF
:0F06520012093AEB4A60030205D6C2A3C2A022E6
:10066100AB07AA06E5116401701CC2A2C2A1D2A007
:10067100D2A3751104EB1B70011A12093AEB4A70EF
:1006810005C2A3C2A022E5116404701CD2A3D2A1A9
:10069100C2A0C2A2751103EB1B70011A12093AEB39
:1006A1004A7005C2A3C2A122E5116403701CD2A144
:1006B100D2A2C2A3C2A0751102EB1B70011A1209CA
:1006C1003AEB4A7005C2A2C2A122E51164027094FC
:1006D100D2A2D2A0C2A1C2A3751101EB1B70011A53
:0F06E10012093AEB4A6003020665C2A2C2A022C8
:10053700AB07AA06E51214602C1460491460661410
:1005470060030205CAD292D290C291C2937512017A
:10055700EB1B70011A90003D12093DEB4A7006C271
:1005670092C290805ED291D292C293C290751202CB
:10057700EB1B70011A90003D12093DEB4A7006C251
:1005870092C291803ED293D291C290C292751203C9
:10059700EB1B70011A90003D12093DEB4A7006C231
:1005A70093C291801ED290D293C292C291751204C7
:1005B700EB1B70011A90003D12093DEB4A7004C213
:0B05C70093C290EB4A600302053B2248
:10049A00AB07AA06E51224FE606D14604A146027B1
:1004AA002403600302052FD293D290C291C292759F
:1004BA001204EB1B70011A90003D12093DEB4A70C1
:1004CA0006C293C290805ED291D293C292C29075B4
:1004DA001203EB1B70011A90003D12093DEB4A70A2
:1004EA0006C293C291803ED292D291C290C29375B3
:1004FA001202EB1B70011A90003D12093DEB4A7083
:10050A0006C292C291801ED290D292C293C29175B3
:10051A001201EB1B70011A90003D12093DEB4A7063
:0D052A0004C292C290EB4A600302049E22BC
:04077C008E168F172F
:10078000C2B7E4F518F519C3E5199517E5189516DC
:10079000505790003FE070FA900040E064016049DB
:1007A000D2B790003AE0FEA3E07C002400FFEC3ECC
:1007B000FE74632519F58274003518F583E0FD1287
:1007C00002347D64120246120941C2B7900042E031
:1007D0007F017E00B4010512066180031205D20577
:1007E00019E51970A20518809E900000E06007E4EA
:1007F000900040F080077F017E00120537E49000F2
:050800003EF0759901B6
:0108050022D0
:1009120075985053890F438920AB07AA06E4F9F86A
:100922007F807E70FDFC1208CEEFF404F58D858D7C
:080932008BC2ABD2ACD28E22C5
:030023000208735D
:10087300C0E0C083C082C0D075D000C000C004C037
:1008830006C00730982F740A2515F8A6990515E5B3
:1008930015B4031FE50AFE7C00E4250BFFEC3EFEC6
:1008A30074002FF58274003EF583E50CF075150096
:1008B300759900C298309902C299D007D006D00426
:0B08C300D000D0D0D082D083D0E03233
:1003B800D2AF7580FF7F807E2512091290003C74B1
:1003C8000FF0A3F09000387401F0E490003EF0C202
:1003D800B7F515900039E0B4640B7D627F647E0048
:1003E800120806800E900039E0B40104D2B7800AE2
:1003F8001200037F0A7E00120941E5156004C2B6A7
:100408008002D2B6900032E0B40115A3E0FEA3E06A
:100418007C002400FFEC3EFE1205D2E4900032F08E
:10042800900032E0B40215A3E0FEA3E07C002400B3
:10043800FFEC3EFE120661E4900032F0900032E0DC
:10044800B40315A3E0FEA3E07C002400FFEC3EFE0D
:10045800120537E4900032F0900032E0B40415A39E
:10046800E0FEA3E07C002400FFEC3EFE12049AE4C8
:10047800900032F090003EE070030203DB900036FB
:10048800E0FEA3E07C002400FFEC3EFE12077C02A5
:0204980003DB84
:030000000206F005
:0C06F000787FE4F6D8FD75811A02073708
:10023400EF8DF0A4A8F0CF8CF0A428CE8DF0A42EDE
:02024400FE2298
:10024600BC000BBE0029EF8DF084FFADF022E4CC9C
:10025600F875F008EF2FFFEE33FEEC33FCEE9DEC65
:10026600984005FCEE9DFE0FD5F0E9E4CEFD22EDAB
:10027600F8F5F0EE8420D21CFEADF075F008EF2FF5
:10028600FFED33FD4007985006D5F0F222C398FDE6
:050296000FD5F0EA2283
:10029B00E88FF0A4CC8BF0A42CFCE98EF0A42CFC02
:1002AB008AF0EDA42CFCEA8EF0A4CDA8F08BF0A480
:1002BB002DCC3825F0FDE98FF0A42CCD35F0FCEBDF
:1002CB008EF0A4FEA9F0EB8FF0A4CFC5F02ECD39A4
:0F02DB00FEE43CFCEAA42DCE35F0FDE43CFC2211
:1002EA0075F008758200EF2FFFEE33FECD33CDCCCB
:1002FA0033CCC58233C5829BED9AEC99E58298404E
:10030A000CF582EE9BFEED9AFDEC99FC0FD5F0D62A
:10031A00E4CEFBE4CDFAE4CCF9A88222B800C1B954
:10032A000059BA002DEC8BF084CFCECDFCE5F0CB92
:10033A00F97818EF2FFFEE33FEED33FDEC33FCEBCB
:10034A0033FB10D703994004EB99FB0FD8E5E4F986
:10035A00FA227818EF2FFFEE33FEED33FDEC33FC73
:10036A00C933C910D7059BE99A4007EC9BFCE99A67
:10037A00F90FD8E0E4C9FAE4CCFB2275F010EF2FAC
:10038A00FFEE33FEED33FDCC33CCC833C810D707AC
:10039A009BEC9AE899400AED9BFDEC9AFCE899F8E7
:0E03AA000FD5F0DAE4CDFBE4CCFAE4C8F9227A
:1008CE00C2D5E830E70FB2D5E4C39BFBE49AFAE455
:1008DE0099F9E498F8EC30E717B2D512090412032F
:1008EE0026E4C39BFBE49AFAE499F9E498F88003B2
:1008FE0012032630D50DE4C39FFFE49EFEE49DFD5A
:04090E00E49CFC2247
:1006FC000203B8E493A3F8E493A34003F68001F259
:10070C0008DFF48029E493A3F85407240CC8C333FE
:10071C00C4540F4420C8834004F456800146F6DFCD
:10072C00E4800B0102040810204080900026E47E37
:10073C00019360BCA3FF543F30E509541FFEE493C2
:10074C00A360010ECF54C025E060A840B8E493A389
:10075C00FAE493A3F8E493A3C8C582C8CAC583CAB4
:10076C00F0A3C8C582C8CAC583CADFE9DEE780BE6C
:0102330000CA
:00000001FF
